:1000000019C028C027C026C025C024C023C022C0D4
:1000100021C020C01FC01EC01DC01CC01BC01AC0F4
:1000200019C018C017C016C015C014C013C012C024
:1000300011C010C011241FBECFEFD4E0DEBFCDBF72
:1000400021E0A0E0B1E001C01D92A830B207E1F7C5
:1000500002D0C5C0D5CF85B1876C85B984B188730E
:1000600084B98BB1806E8BB98AB18F718AB98BB12B
:100070008F608BB98AB1807F8AB988B1807F88B957
:1000800087B1807F87B95C98549885B5887F8560F3
:1000900085BD60E889B18F701E9907C098E0899F7F
:1000A000900111248695822B8F7029B1207230E047
:1000B00040910601509107014217530771F0211535
:1000C000310511F493E001C090E0309307012093D3
:1000D00006016093610090936100209106013091C8
:1000E0000701232BF9F499B1907C903431F09038CA
:1000F00031F0992331F09FE205C097E103C09FE101
:1001000001C09FE026B5921708F04FC016BC2091A1
:10011000040130910501209530953093050120931D
:10012000040143C04C9B05C0909103019F5F9093D5
:100130000301909102019F5F909302019830A9F50D
:1001400031E090910301943008F430E01092030103
:100150001092020190910101913029F5311123C0D3
:10016000909100019E5F9093000129B1207C203482
:1001700031F0203831F0222331F026E005C023E0B1
:1001800003C024E001C022E0921768F0921B909314
:100190000001409104015091050140955095509304
:1001A0000501409304013093010120910401309135
:1001B0000501232B31F0189B8160199B82601A9BEB
:1001C00084601F9905C0982F969596959C60892309
:1001D00097B180958F70907F892B87B95BCFF8940A
:0201E000FFCF4F
:00000001FF
